:020000040800F2
:10000000D80B0020D10F0008B1010008B30100088F
:10001000B7010008BB010008BF0100080000000094
:10002000000000000000000000000000C301000804
:10003000C501000800000000C7010008C901000850
:10004000EB0F0008EB0F0008EB0F0008EB0F0008A8
:10005000EB0F0008EB0F0008EB0F0008EB0F000898
:10006000EB0F0008EB0F0008EB0F0008EB0F000888
:10007000EB0F0008EB0F0008EB0F0008EB0F000878
:10008000EB0F0008EB0F0008EB0F0008EB0F000868
:10009000EB0F0008EB0F0008EB0F0008EB0F000858
:1000A000EB0F0008EB0F0008EB0F0008EB0F000848
:1000B000EB0F0008EB0F0008EB0F0008EB0F000838
:1000C000EB0F0008EB0F0008EB0F0008EB0F000828
:1000D000EB0F00089F070008EB0F0008EB0F00086C
:1000E000EB0F0008EB0F0008EB0F0008EB0F000808
:1000F000EB0F0008EB0F0008EB0F0008EB0F0008F8
:10010000EB0F0008EB0F0008EB0F0008EB0F0008E7
:10011000EB0F0008EB0F0008EB0F0008EB0F0008D7
:10012000EB0F0008EB0F0008EB0F0008EB0F0008C7
:10013000DFF80CD001F0C6FD00480047450100087B
:10014000D80B002000F0D6F94FF4A06000F052FF69
:100150004FF4E13000F047FA00F028F900F04CF9D4
:10016000FF220E490E4800F0DDFAFF220D490E482D
:1001700000F0D8FA00200D49087048700DE0002208
:100180001146104600F0B3FD00220221104600F097
:10019000AEFD01E000F07CFEFCE7F0E75800002037
:1001A0004C000020570100204000002000000020EB
:1001B000704700BFFEE700BFFEE700BFFEE700BFDD
:1001C000FEE7704770477047704700000CB500208D
:1001D000019000906C48006840F480306A490860E3
:1001E00000BF6948006800F4003000900198401C8E
:1001F0000190009818B90198B0F5A06FF1D162484C
:10020000006800F4003010B10120009001E00020EF
:1002100000900098012843D15C48006840F010002D
:100220005A4908600846006820F003000860084644
:10023000006840F002000860534840685249486036
:100240000846406848600846406840F4806048605E
:100250000846406820F47C1048600846406840F436
:10026000E81048600846006840F08070086000BFF1
:100270004548006800F000700028F9D04248406806
:1002800020F00300404948600846406840F0020002
:10029000486000BF3C48406800F00C000828F9D1D5
:1002A0000CBD10B5FFF792FF10BD10B536480068C1
:1002B00040F001003449086008464068344908406D
:1002C0003149486008460068324908402E490860B4
:1002D0000846006820F4802008600846406820F442
:1002E000FE0048604FF41F008860FFF7DAFF4FF010
:1002F00000602949086010BD10B5002100200022CF
:10030000214B5B6803F00C0121B1042906D00829B8
:1003100028D107E0214B224C236027E01F4B204CC3
:10032000236023E0184B5B6803F47010164B5B6886
:1003300003F48032022303EB904022B9194B43436C
:10034000174C23600DE0104B5B6803F4003323B1BE
:10035000144B4343124C236003E0104B4343104CB7
:10036000236003E00D4B0E4C236000BF00BF064B23
:100370005B68C3F303130C4CE15C094B1B68CB4077
:10038000074C236010BD0000001002400020024016
:100390000000FFF8FFFFF6FE08ED00E000127A0013
:1003A0000400002000093D000800002008B50121DC
:1003B000482001F0A9F92020ADF8000010208DF8A8
:1003C000030003208DF802006946094800F0E0FEB2
:1003D0002021074800F089FF2020ADF80000694681
:1003E000044800F0D5FE2021024800F07EFF08BD41
:1003F000000C01400018014008B50121442001F023
:1004000083F91C20ADF8000048208DF803006946F0
:10041000354800F0BDFE0120ADF8000028208DF821
:1004200003006946314800F0B3FE08BD10B504462C
:1004300014B101202E4908702D480078002837D0CB
:100440001021294800F037FF78B10821264800F034
:1004500032FF50B10421244800F02DFF28B10121C2
:10046000224800F028FF012822D10A2000F07FF85E
:1004700000201F49087010211B4800F01CFF08B91C
:10048000012010BD0821184800F015FF08B902200E
:10049000F7E70421144800F00EFF08B90320F0E745
:1004A0000121124800F007FF01281BD10420E8E7D2
:1004B00010210D4800F0FFFE012813D108210A4841
:1004C00000F0F9FE01280DD10421074800F0F3FEE9
:1004D000012807D10121054800F0EDFE10B90120E7
:1004E000034908700020CCE70018014000080140D3
:1004F0001800002010B56FF0040000F0CAFD2E486F
:1005000000682E49B0FBF1F02D49087008460078CC
:1005100000EB4001C1EBC0104FF6FF7101EAC000D3
:100520002849088010BD0146254A12784A434FF0F9
:10053000E0235A6100229A611A46126942F00102D0
:100540001A6100BF4FF0E022106900F001021AB1F9
:1005500000F48032002AF5D04FF0E022126922F038
:1005600001024FF0E0231A6100229A6170470146B0
:10057000144A12884A434FF0E0235A6100229A61DC
:100580001A46126942F001021A6100BF4FF0E022E0
:10059000106900F001021AB100F48032002AF5D08F
:1005A0004FF0E022126922F001024FF0E0231A61BD
:1005B00000229A61704700000400002000127A00B7
:1005C0001A0000201C000020014600BF704700BF39
:1005D0002B4A128802F04002002AF9D0C2B2284BFE
:1005E0001B1D1A80704710B586B00446012144F2E5
:1005F000040001F089F84FF40070ADF814000320F6
:100600008DF8160018208DF8170005A91D4800F078
:10061000BFFD4FF48060ADF8140004208DF8170082
:1006200005A9184800F0B4FD01940020ADF80800B9
:10063000ADF80A00ADF80C00ADF810000C20ADF8D4
:100640000E0001A90E4801F006F901210C4801F045
:100650008EF9012240F22551094801F094F9252034
:100660008DF8000003208DF801008DF802000120B4
:100670008DF80300684600F0C2FC06B010BD000013
:10068000003801400008014002461089D388984292
:1006900001D10020704713891068C05C0870108970
:1006A000401C80B210819388984201DB00201081A9
:1006B0000120EFE710B502460B46D188481C80B2F6
:1006C00001469488A04200DB00211089884201D1B4
:1006D000002010BDD48810680355D1800120F8E7B0
:1006E0000146CA880B899A4206DB8A88CB88D21ACF
:1006F0000B891A4490B203E00A89CB88D21A90B2CF
:1007000070470146CA880B899A4204DBCA880B8964
:10071000D21A90B205E08A880B89D21ACB881A4483
:1007200090B2704730B50B46036082800024C480CD
:100730000481002104E0002405686C544C1CA1B223
:100740009142F8DB30BD70B506460C460CB900206E
:1007500070BD002507E0715D2948FFF7ABFF601E03
:1007600084B2681C85B2002CF5DC012240F22771AE
:10077000244801F008F90120EAE708B56946224853
:10078000FFF782FF9DF8000008BD00B51C48FFF789
:10079000A7FF00BD00B51C48FFF7B3FF00BD08B5BB
:1007A00040F22551174801F0D3F948B1154801F03E
:1007B0004FF9C0B200909DF800101348FFF77AFF80
:1007C00040F227710F4801F0C3F9C0B169460C48E7
:1007D000FFF75AFF28B19DF800100A4801F034F9DC
:1007E00003E05521074801F02FF90548FFF789FF7D
:1007F00028B9002240F22771024801F0C4F808BD70
:100800004C000020003801404000002002460B78D8
:1008100083EA020080EA0013D8B20B881B1283EA35
:10082000002383EAC00383EA20130B8070472DE97D
:10083000FF4F85B088461446129D059800F052FB84
:100840000646FE208DF808008DF80950B0798DF825
:100850000A00FE4800788DF80B00FC4840788DF8BF
:100860000C008DF80D80B079401CB0710DF10907B6
:100870004FF0050900BF4FF6FF70009000BF04E085
:1008800017F8010B6946FFF7C1FF5FEA0900A9F1FC
:1008900001011FFA81F9F3D1BDF80000049004AF03
:1008A000A146AA46CB4604E01BF8010B3946FFF7E8
:1008B000ADFF5FEA0A00AAF101011FFA81FAF3D144
:1008C00000BF04A91398FFF7A1FFBDF81000C0B244
:1008D0008DF80400BDF8100000128DF80500062206
:1008E00002A9059800F005FB2A462146059800F06C
:1008F00000FB022201A9059800F0FBFA09B0BDE84F
:10090000F08F2DE9F04705460C4616469846089F9D
:100910004FF0000900202070E0780B2812D2DFE8A9
:1009200000F0060712312939414E5F72730000BF93
:10093000FE2E07D10220E0700020E870AE7028463D
:1009400000F0E0FA7AE0207850B16078401C6070E6
:10095000A078401CA070002020700120E07008E00A
:10096000EE70002020713146284600F0D1FA0420B4
:10097000E07063E02E713146284600F0C9FA03208A
:10098000E0705BE06E713146284600F0C1FA052048
:10099000E07053E0AE713146284600F0B9FA062007
:1009A000E0704BE0EE713146284600F0B1FAE8788D
:1009B00010B90820E07001E00720E0703EE02179E6
:1009C000481C207105F1080046543146284600F0C5
:1009D0009FFA2079E978884201D10820E0702DE063
:1009E000E8799B4A115C284600F092FA2878B042D8
:1009F00002D00A20E07001E00920E070217905F1C1
:100A0000080046541AE000BFE0780A2803D028887E
:100A1000B6EB202F02D00220207001E001202070D0
:100A20000120E0702079401C05F108010E544FF4BC
:100A300088722946404601F0CFF800BF00BF09F197
:100A400001092078012808D128796071208908B926
:100A5000002060812089401C2081E87888F803000C
:100A6000E078F870207938716079401C78712089BD
:100A70003881A07878810020A070207802280BD1DE
:100A8000217905F10800425C481C05F10801085C69
:100A900042EA0020A8F800002078BDE8F08770B591
:100AA00006460C46154624B92946304601F0ADF8F5
:100AB00004E02A462146304601F08EF870BD2DE94B
:100AC000F04786B0054601240426624890F900707C
:100AD000102490F90000C01E05280BD2DFE800F0BA
:100AE00003060504070000BF00BF00BF00BF44F0BD
:100AF000080400BF00BF44F0400444F001044FF07C
:100B000002084FF00309A24603978DF810808DF874
:100B100011908DF812A08DF8136003208DF8140049
:100B2000322009210B4603AACDE9001000212846F6
:100B3000FFF77DFE00BF06B0BDE8F0872DE9F04F5E
:100B400089B0044644484078401CC5B242484570CC
:100B500001468978491CC9B202469170084601F0E5
:100B60005FF806463C49C978491CC9B23A4AD17077
:100B7000084601F055F8074637490979491CC9B2BA
:100B8000354A1171084601F04BF8804632494979DF
:100B9000491CC9B2304A5171084601F041F88146FA
:100BA0002D498979491CC9B22B4A9171084601F037
:100BB00037F882462849C979491CC9B2264AD171F9
:100BC000084601F02DF88346029503960497CDF868
:100BD0001480CDF81890CDF81CA0CDF820B02720B7
:100BE0001C210B4602AACDE900101E212046FFF76A
:100BF0001EFE00BF09B0BDE8F08F2DE9F04F8BB0AD
:100C000004460125022603274FF004084FF005098A
:100C10004FF0060A4FF0070B0820099009200A90B0
:100C2000029503960497CDF81480CDF81890ADF88E
:100C30001CA0ADF81EB00998ADF820000A98ADF8D8
:100C4000220068201C210B4602AA07E000000020B9
:100C50007C1E0008260000209C020020CDE9001028
:100C600021212046FFF7E3FD00BF0BB0BDE8F08F68
:100C700070470146002070472DE9F04106460D46B9
:100C80001746FFF782FD04B23046FFF7F2FF10B1BE
:100C90000020BDE8F08135B1012D0CD0022D12D01D
:100CA000122D20D117E0092C01DA0020F1E730469F
:100CB000FFF705FF18E01C2C01DA0020E9E73046B9
:100CC000FFF73CFF10E01C2C01DA0020E1E7304682
:100CD000FFF793FF08E0332C01DA0020D9E7304614
:100CE000FFF7C6FF00E000BF00BF0120D1E72DE9FC
:100CF000F04780460E46914608EBC80000EB08100E
:100D0000A949441812E0E07D215C4A464046FFF7BD
:100D1000B3FF00B90DE0E07D401CE075E07D1728D1
:100D200001D10020E075207E401E2076207E002824
:100D3000E9D100BF172E01D1BDE8F0870027E57D7E
:100D40000AE0605DB04200D1F6E7681CC5B2172D1D
:100D500000D10025781CC7B2207EB842F1DC207E8D
:100D600028B94A4631464046FFF786FF80B9207EC3
:100D7000172800D1E0E7E07D217E0844C5B2172D99
:100D800002DBA5F11700C5B26655207E401C207617
:100D900000BFD1E770B590B006460C461546304608
:100DA000FFF767FF08B110B070BD012C0CD17F4870
:100DB000047032222946401CFFF771FE00221221E6
:100DC0003046FFF794FF14E000BF8DF80C4032224C
:100DD00029460DF10D00FFF762FE532033210B462B
:100DE00003AACDE90010FD213046FFF720FD00BF2A
:100DF00000BF00BFD7E72DE9F0410446E07920B1FC
:100E00001E2817D021283FD129E02546684EE878D2
:100E1000092801DAE87800E0092007460921304670
:100E200000F0F3FE3A4605F10801304600F0D4FE2A
:100E300000BF2AE025465F4EE8781C2801DAE878F2
:100E400000E01C2007461C21304600F0DEFE3A463A
:100E500005F10801304600F0BFFE00BF15E0254651
:100E6000554EE8781C2801DAE87800E01C20074697
:100E70001C21304600F0C9FE3A4605F10801304613
:100E800000F0AAFE00BF00E000BF00BFBDE8F08197
:100E900010B5C8B00020ADF80E001DE0FFF76DFCE6
:100EA000044601AB04AA21464448007800F038F813
:100EB00088B10120424908709DF8150000909DF806
:100EC00016309DF814209DF817103E4800F00CFFD6
:100ED00004A8FFF790FF00BFFFF75CFC0028DDD1FE
:100EE00048B010BD014601EB4100374A02EB8000DB
:100EF000704770B506460C46154629462046FFF752
:100F000022FC70BD00BF4FF6FF71018000BF70472B
:100F100070B504460D4621462846FFF777FC70BDA4
:100F20002DE9F84F07460C4616461D4600BF3846C9
:100F3000FFF7D8FF8146384600F02EF88246334648
:100F4000224649460095FFF7DCFC8046B8F1020FC7
:100F500020D1384600F020F882463846FFF7C2FF1D
:100F6000814699F80200401C89F80200002089F8A7
:100F70000000012089F80300FE2C08D1022089F826
:100F8000030000208AF803005046FFF7BBFF002053
:100F9000BDE8F88F4046FBE7014601EB01100B4A24
:100FA00002EB001070470000330300200003002014
:100FB0005802002064020020800200202700002048
:100FC000280000207C1F00086603002098030020F2
:100FD0000648804706480047FEE7FEE7FEE7FEE7D3
:100FE000FEE7FEE7FEE7FEE7FEE7FEE7AB020008EE
:100FF0003101000831490143314A1160704770B531
:10100000002100230F22C47804B32D4C246804F47B
:10101000E064C4F5E064210AC1F10403CA404478E5
:1010200004FA03F18478144021430901254C067821
:10103000A155047804F01F050124AC4005786D111A
:10104000AD0005F1E025C5F8004109E0047804F0A1
:101050001F050124AC401C4D0678761145F826404A
:1010600070BD1A4A0A400243154B1B1F1A60704795
:1010700039B1134A121D12680243114B1B1D1A602D
:1010800006E00F4A121D126882430D4B1B1D1A60A9
:101090007047042808D14FF0E021096941F00401AC
:1010A0004FF0E022116107E04FF0E021096921F0E3
:1010B00004014FF0E0221161704700000000FA05C2
:1010C0000CED00E000E400E080E100E080FFFF1FA5
:1010D00010B50446CC48844208D10121042000F018
:1010E0002DFB0021042000F029FB46E0C748844284
:1010F00008D10121082000F021FB0021082000F088
:101100001DFB3AE0C248844208D10121102000F0C2
:1011100015FB0021102000F011FB2EE0BD48844299
:1011200008D10121202000F009FB0021202000F03F
:1011300005FB22E0B848844208D10121402000F09C
:10114000FDFA0021402000F0F9FA16E0B34884428D
:1011500008D10121802000F0F1FA0021802000F068
:10116000EDFA0AE0AE48844207D10121801500F073
:10117000E5FA0021A01500F0E1FA10BD10B501213B
:10118000084600F0DBFA0021012000F0D7FA10BD7C
:101190002DE9F0410246002500260020002300240E
:1011A000002791F803C00CF00F0591F803C00CF074
:1011B000100CBCF1000F03D091F802C04CEA0505F9
:1011C00091F800C0BCF1000F31D0146800202BE072
:1011D0004FF0010C0CFA00F3B1F800C00CEA030662
:1011E0009E4220D183004FF00F0C0CFA03F7BC4352
:1011F00005FA03FC4CEA040491F803C0BCF1280F83
:1012000006D14FF0010C0CFA00FCC2F814C00AE041
:1012100091F803C0BCF1480F05D14FF0010C0CFA56
:1012200000FCC2F810C0401C0828D1D31460B1F8EB
:1012300000C0BCF1FF0F34DD546800202EE000F147
:10124000080C4FF0010808FA0CF3B1F800C00CEAE2
:1012500003069E4221D183004FF00F0C0CFA03F7D6
:10126000BC4305FA03FC4CEA040491F803C0BCF14A
:10127000280F05D100F1080C08FA0CF8C2F8148008
:1012800091F803C0BCF1480F07D100F1080C4FF0F2
:10129000010808FA0CF8C2F81080401C0828CED3C8
:1012A0005460BDE8F0814FF6FF710180022181702A
:1012B0000421C17070470246002093680B400BB1B7
:1012C000012000E0002070470146886880B2704726
:1012D00002460020D3680B400BB1012000E0002043
:1012E00070470146C86880B270470161704741612C
:1012F00070470AB1016100E041617047C160704709
:101300004FF480320A43826181618261826982691D
:10131000704702460020434B18684FF68073184010
:1013200040EA021008433F4B186070473E49C861CD
:101330007047F0B50A46002300240021002500F084
:101340000046B6F1004F02D1364EF16901E0354E4C
:101350007168C0F3034583B200F44016B6F5401F30
:1013600008D121F070612F4E766826F070662D4FFF
:101370007E6012E000F48016B6F5801F06D10326C9
:1013800006FA05F4A14341F0706106E0460D36010E
:1013900003FA06F6B14341F0706122B1460D360101
:1013A00003FA06F6314300F00046B6F1004F02D1D1
:1013B0001C4EF16101E01B4E7160F0BD30B50022A2
:1013C0008B071C0F0F2303FA04F2164B08338C1003
:1013D00053F824309343134C08348D1044F82530CF
:1013E00023468C1053F824308C07240F00FA04F4A1
:1013F00023430C4C08348D1044F8253030BD0A4985
:10140000DC3108607047000000080140000C01401A
:10141000001001400014014000180140001C014070
:10142000002001400000014000002042DF48006829
:1014300040F00100DD49086008464068DC4908408A
:10144000DA49486008460068DA490840D749086028
:101450000846006820F4802008600846406820F4B0
:10146000FE0048604FF41F0088607047CF4909684C
:1014700021F48031CD4A11601146096821F48021A0
:101480001160B0F5803F03D0B0F5802F0ED106E09B
:10149000C649096841F48031C44A116007E0C34974
:1014A000096841F4A021C14A116000E000BF00BFFB
:1014B000704710B501460022002300204A11012A7E
:1014C00002D1BA4C236806E0022A02D1B74C236A43
:1014D00001E0B64C636A01F01F02012494401C40F5
:1014E0000CB1012000E0002010BD38B500200090B4
:1014F0000024002500BF3120FFF7DBFF05460098E0
:10150000401C00900098B0F5A06F01D0002DF2D0E3
:101510003120FFF7CEFF08B1012400E0002420466F
:1015200038BD01460020A14A106820F0F80040EACA
:10153000C10010607047A049086070470246002053
:101540009A4B586820F47C1042EA01031843974BE9
:101550005860704798490866704701460020934AD2
:10156000506820F003000843506070478F4840687F
:1015700000F00C007047014600208C4A506820F0B3
:10158000F00008435060704701460020874A5068C9
:1015900020F4E06008435060704701460020834A11
:1015A000506820F4605040EAC1005060704729B193
:1015B0007E4A527A02437D4B5A7204E07B4A527A49
:1015C00082437A4B5A7270477B49D8310860704722
:1015D00001460020754A506820F44040084350609E
:1015E00070470021714A20321170704A82F8201031
:1015F000012802D004280AD104E001216B4A2032DC
:10160000117005E00521694A2032117000E000BF29
:1016100000BF70476949086070476449096A01431F
:10162000624A11627047654944390860704730B5B5
:1016300000210022002400235C4D6D6805F00C01A0
:1016400021B1042905D0082923D105E05C4D0560AE
:1016500022E05B4D05601FE0544D6D6805F470128B
:10166000524D6D6805F48034022505EB92421CB999
:10167000544D554305600BE04C4D6D6805F4003545
:101680001DB1504D5543056002E04D4D5543056079
:1016900002E04B4D056000BF00BF444D6D6805F092
:1016A000F0010909484D6B5C0568DD4045603F4D20
:1016B0006D6805F4E061090A434D6B5C4568DD40E7
:1016C00085603A4D6D6805F46051C90A3E4D6B5C0A
:1016D0004568DD40C560354D6D6805F44041890BB6
:1016E0003A4D6B5CC568B5FBF3F5056130BD29B1BA
:1016F0002E4A526902432D4B5A6104E02B4A52692B
:1017000082432A4B5A61704729B1284A92690243A1
:10171000264B9A6104E0254A92698243234B9A61E1
:10172000704729B1214AD2690243204BDA6104E0B3
:101730001E4AD26982431D4BDA61704729B11B4AA8
:10174000D2680243194BDA6004E0184AD268824337
:10175000164BDA60704729B1144A12690243134BE1
:101760001A6104E0114A12698243104B1A617047F2
:1017700012494039086070470F49C86470470B49E7
:10178000C87170470948406A40F080700749486254
:10179000704701460020054A92680A400AB10120BC
:1017A00000E0002070470149887270470010024035
:1017B0000000FFF8FFFFF6FE0000424280044242B4
:1017C00000127A0000093D002900002039000020A5
:1017D00010B50446FB48844209D101218803FFF774
:1017E000ADFF00214FF48040FFF7A8FF32E0F6483C
:1017F000844209D101214804FFF7ADFF00214FF4D5
:101800000030FFF7A8FF25E0F048844209D101210C
:101810008804FFF7A0FF00214FF48020FFF79BFF13
:1018200018E0EB48844209D10121C804FFF793FF77
:1018300000214FF40020FFF78EFF0BE0E5488442C3
:1018400008D101210805FFF786FF00214FF4801021
:10185000FFF781FF10BD2DE9F04786B005460E4623
:101860000024A24600BFA1460027B08900B100BFF6
:101870002F462C8A4CF6FF700440F08804432C82DB
:10188000AC894EF6F3100440B08831890843718961
:1018900008430443AC81AC8A4FF6FF400440B08952
:1018A0000443AC8201A8FFF7C2FEC648874202D1BA
:1018B000DDF810A001E0DDF80CA0A88900F40040DC
:1018C00040B10AEBCA0000EB0A1031684900B0FBD6
:1018D000F1F807E00AEBCA0000EB0A103168890052
:1018E000B0FBF1F86420B8FBF0F00401200964219A
:1018F00001FB1089A88900F4004040B1322000EBC0
:10190000C900B0FBF1F000F00700044308E032200A
:1019100000EB09106421B0FBF1F000F00F0004436C
:101920002C8106B0BDE8F0874FF41651016000210C
:101930008180C18001810C2141810021818170471A
:1019400010B502460020108A4FF2FF0318400B88A2
:101950004C8823438C882343CC882343184310822C
:1019600010BD0021018041808180C180704721B17C
:10197000828942F40052828104E082894DF6FF732D
:101980001A4082817047F0B50346002400260025E6
:10199000002040F66A17B94200D100BF1846C1F3D3
:1019A000421401F01F06012707FA06F5012C01D1A8
:1019B0000C3004E0022C01D1103000E014301AB1D8
:1019C00007682F43076002E00768AF430760F0BD78
:1019D0001AB1838A0B43838202E0838A8B4383821A
:1019E0007047028A4FF6F0731A400282028A0A4355
:1019F0000282704782894FF2FF731A408281828986
:101A00000A438281704721B1828942F002028281B9
:101A100004E082894FF6FD731A4082817047028A82
:101A20004FF6DF731A400282028A0A43028270472D
:101A300021B1028A42F48042028204E0028A4BF61B
:101A4000FF731A4002827047C1F308028280704718
:101A500001468888C0F308007047818941F0010180
:101A600081817047028BD2B20283028B42EA01224B
:101A700002837047028B02F47F420283028B0A4387
:101A80000283704721B1828A42F02002828204E000
:101A9000828A4FF6DF731A408282704721B1828AB0
:101AA00042F01002828204E0828A4FF6EF731A40FD
:101AB0008282704721B1828A42F00802828204E069
:101AC000828A4FF6F7731A408282704721B1828969
:101AD00042F40042828103E08289C2F30E028281D5
:101AE000704721B1828A42F40062828204E0828AD5
:101AF0004FF2FF731A4082827047828A4FF6FB735F
:101B00001A408282828A0A438282704721B1828A85
:101B100042F00202828204E0828A4FF6FD731A408C
:101B20008282704702460020B1F5007F00D100BFDD
:101B300013880B400BB1012000E00020704701F436
:101B40000072B2F5007F00D100BFCA430280704727
:101B500070B50246002400230025002040F66A16D6
:101B6000B14200D100BFC1F3421501F01F030126AD
:101B700006FA03F3012D02D19689334006E0022DC7
:101B800002D1168A334001E0968A33400C120126B6
:101B900006FA04F41688344013B10CB1012000E0B9
:101BA000002070BD10B50022002340F66A14A14247
:101BB00000D100BF0A1201249440A3B2DC43048088
:101BC00010BD0000003801400044004000480040C3
:101BD000004C00400050004040EA01039B0703D046
:101BE00009E008C9121F08C0042AFAD203E011F85C
:101BF000013B00F8013B521EF9D27047D2B201E01E
:101C000000F8012B491EFBD270470022F6E710B501
:101C100013460A4604461946FFF7F0FF204610BD5A
:101C200096230022114600F01FB830B50B4601463E
:101C300000202022012409E021FA02F59D4205D36B
:101C400003FA02F5491B04FA02F52844151EA2F115
:101C50000102F1DC30BD0029A8BF7047401C4900DB
:101C600008BF20F00100704710B4B0FA80FC00FA01
:101C70000CF050EA010404BF10BC704749B1CCF12C
:101C8000200421FA04F411FA0CF118BF01212143B8
:101C90000843A3EB0C01CB1D4FEA00614FEA102073
:101CA00042BF002010BC704700EBC3501044002915
:101CB000A4BF10BC7047401C490008BF20F00100C1
:101CC00010BC7047064C074D06E0E06840F0010389
:101CD00094E8070098471034AC42F6D3FEF72CFA8C
:101CE000C81F0008E81F00080FB4054B10B503A972
:101CF000044A029800F018F810BC5DF814FB0000CC
:101D0000CF0500082000002002E008C8121F08C10B
:101D1000002AFAD170477047002001E001C1121F6C
:101D2000002AFBD1704700002DE9FF4F89B09B4688
:101D30000446002506E025280BD05A460B9990470B
:101D4000641C6D1C20780028F5D10DB02846BDE834
:101D5000F08F0027B8460122474900E0074314F8F6
:101D6000013F203B02FA03F00842F7D120782E28E9
:101D700019D114F8010F47F004072A280ED06FF08C
:101D80002F022078A0F1300109290CD808EB880136
:101D900002EB410100EB0108641CF2E70A98641CA5
:101DA00050F8048B0A9020780028CED0642808D000
:101DB000692806D075281ED05A460B9990476D1C8D
:101DC00058E00A994FF00A0901C90A91002802DA7D
:101DD00040422D2102E0390504D52B218DF8201039
:101DE000012103E0F90704D02021F7E78A4608AE75
:101DF0000DE00021FAE70A994FF00A0901C90A919A
:101E0000F7E74946FFF711FF303106F8011D0028BA
:101E1000F7D1ADEB060000F12009780701D44FF0AF
:101E20000108C84502DDA8EB090000E0002080465B
:101E3000002706E008A85A46C05D0B9990476D1C24
:101E40007F1C5745F6DB04E030205A460B9990473B
:101E50006D1CB8F10001A8F10108F5DC05E016F8E9
:101E6000010B5A460B9990476D1CB9F10001A9F17D
:101E70000109F4DC641C65E709280100327C890053
:101E8000EDD9687700000059000000000000000054
:101E9000D69FDCA81817AA90437327F6B968EDF40B
:101EA000DED409FEE61C1C84DDE80B9929274EC40C
:101EB00000000F030000000000A7B777BF7694155D
:101EC00000F37C000026149E988F0000006A3116F3
:101ED0008F8C059600E7B73F362F0000000000000A
:101EE000AF669ED0385D8A6C20B95422AE7CED047A
:101EF0004C80387486EDCBFA57CBDC19E22E1DDF0F
:101F00005506E5CB01C36DA8B52F48837F00679ABE
:101F1000B2C8000000000000000000000000000047
:101F200000000000000000000000000000000000B1
:101F300000000000000000000000000000000000A1
:101F40000000000000000000000000000000000091
:101F50000000000000000000000000000000000081
:101F60000000A369972396B300000000005A68554B
:101F70005F82B85108CC31AA2C532E00526563659C
:101F800069766564206D6573736167652077697430
:101F9000682049442025642C2073657175656E6343
:101FA000653A2025642066726F6D20636F6D706FD7
:101FB0006E656E74202564206F6620737973746576
:101FC0006D20256400000000E81F000800000020CC
:101FD00040000000081D00082820000840000020E4
:101FE000980B0000181D00080000000000A24A0421
:101FF00000000000000000000102030406070809B9
:1020000001000000000000000000000000000000CF
:102010000000000000010203040102030406070897
:0820200009020406080000009B
:0400000508000131BD
:00000001FF
